:020000040800F2
:10000000280E00208D0100089101000893010008CE
:100010009501000897010008990100080000000000
:100020000000000000000000000000009B0100082C
:100030009D010008000000009F010008FB0C000863
:10004000A3010008A3010008A3010008A301000800
:10005000A3010008A3010008A3010008A3010008F0
:10006000A3010008A3010008A3010008A3010008E0
:10007000A3010008A3010008A3010008A3010008D0
:10008000A3010008A3010008A3010008A3010008C0
:10009000A3010008A3010008A3010008A3010008B0
:1000A000A3010008A3010008A3010008A3010008A0
:1000B000A3010008A3010008A3010008A301000890
:1000C000A3010008A3010008A3010008A301000880
:1000D000A3010008A301000819250008A3010008D6
:1000E000A3010008A3010008A301000800F002F822
:1000F00000F03CF80AA090E8000C82448344AAF186
:100100000107DA4501D100F031F8AFF2090EBAE883
:100110000F0013F0010F18BFFB1A43F0010318473B
:100120007825000098250000103A24BF78C878C1CF
:10013000FAD8520724BF30C830C144BF04680C60ED
:10014000704700000023002400250026103A28BF35
:1001500078C1FBD8520728BF30C148BF0B60704739
:100160001FB502F064FA1FBD10B510BD02F025FAEC
:100170001146FFF7F5FF00F0A3FE02F043FA03B4C7
:10018000FFF7F2FF03BC02F04BFA000008480047FB
:10019000FEE7FEE7FEE7FEE7FEE7FEE7FEE7FEE737
:1001A000FEE7FEE703480449024A044B704700009B
:1001B000ED000008280C0020280E0020280C00204C
:1001C0003A49122008603B48394941603A49016088
:1001D00001688907FCD501688901FCD54168C1F334
:1001E00081010229FAD14FF0E021344A4A61062206
:1001F0000A6100228A610B6943F001030B61816986
:1002000041F0080181612F492D4B0B6043F21333FC
:100210004B60816941F0100181612B4802604260AE
:10022000AFF300802349886940F0010088612748C6
:10023000426822F0080242608A6942F004028A6140
:10024000D0F8002822F47F42C0F80028D0F8002817
:1002500042F43062C0F80028D0F8002842F480420E
:10026000C0F80028C86940F40030C861184840F25E
:10027000E24101804FF0000181800181828882800B
:100280008181818841F00C018180818841F0A00149
:10029000818001890181818981810E4A4FF040016D
:1002A0001160818841F40051818070470020024034
:1002B0000284100000100240830000017FA90300A7
:1002C00066000033000C01400010014000000140B6
:1002D0000844004004E100E000EB8000401EFDD136
:1002E0007047F34AD16DD36D5B1A8342FBD37047DD
:1002F000F048C16941F00051C161EF490120086037
:100300007047EC48816941F400718161EB4800213C
:1003100081624FF00A0101634FF0050181604FF4E3
:1003200080710160E6494160416841F4A00141608B
:100330007047DF48418FE3480029D0F80C1C02D0F9
:1003400041F0800101E021F08001C0F80C1C7047F1
:1003500070B5DD480068D64CDC4B4FF0000194F8D6
:10036000222023F81200084633F91050401CC0B276
:1003700029441028F8D3081105B2521CD0B2A4F8B1
:10038000585084F82200102802D3002084F822005C
:100390001E2001F05CFA684340F6B83190FBF1F0A2
:1003A000A4F8440070BD70B50546C94830F9150081
:1003B00001F04DFABE4C801C1034E086C54830F97F
:1003C000150001F044FAE18E0844001F2087012047
:1003D00000F09DFE0A20FFF784FF4FF48075BE4BAE
:1003E0002A460021012000F0CAFE0A20FFF779FF0B
:1003F000E18E0120491C00F08AFE0A20FFF771FF00
:10040000B64B2A460021012000F0B9FE01202070E1
:1004100070BDA7480021428F82B1B0F944206A2AFA
:1004200009DA0278521CD2B20270052A03D30522DF
:1004300002700122427080F82110704701704278EA
:10044000002AF8D090F82120521CD2B280F8212046
:100450001E2AF2D380F821100120A4E7F0B5944FB2
:10046000012107F16D0304205A1F7973FF259C4C6D
:1004700000E049B11E1816F8016C2EB9012803D00E
:10048000161806F8015C07E01918161811F8011C77
:10049000615C06F8011C0021401E10F0FF00E8D14D
:1004A0007973F0BD824B30B504206D338C495A1FEF
:1004B0001C18151814F8014C401E10F0FF000C5DBC
:1004C00005F8014CF4D130BD2DE9F0410D46DDE9D0
:1004D000067814461E4600F09BFD17B1FFF7BEFFDD
:1004E00001E0FFF7DFFF724868301EB1815D01F067
:1004F0007F018155FF23B8F1000F09D06C49497A7B
:1005000031B1002102E04354491CC9B2A142FAD3DF
:10051000674A00217C3204E0465C6F18491CD655BE
:10052000C9B2A142F8D3002C03D113705370937059
:10053000D370BDE8F0812DE9FC415D4FB87B08B177
:10054000401EB8735A4E00257236FF22307806F1ED
:100550000A010124F0B33346042893F9013050D046
:10056000062856D005287ED009287DD00B287CD0BF
:1005700034287BD041287AD0422879D0292878D0D5
:10058000432877D0452876D0242838D198B20094D3
:100590000023012203210194FFF796FF96F9010041
:1005A000002869D04C493C39012866D0022875D012
:1005B000032874D0042873D0052872D0062871D07F
:1005C000072870D008286FD009286ED00A286DD06F
:1005D0000B2800E006E06AD00C2810D1CDE90045D8
:1005E000886820E1B7F93A0020B1002304221946B7
:1005F00080B2F1E07F2008704A708A70CA70BDE84E
:10060000FC81009498B20194B0E000BFFFF75CFF5A
:10061000F5E7204603B10020254DCDE900407735B0
:10062000002395F90000012280B20321FFF74CFF5F
:100630007078012800D00020CDE9004095F9010034
:10064000002380B201220221FFF73EFF717820468D
:10065000022900D00020CDE9004095F902000023D6
:1006600080B201220AE03DE04BE064E073E079E013
:100670007FE09EE0A4E0ABE051E0B0E01146FFF780
:1006800023FF71782046032900D00020CDE90040E7
:1006900095F90300002380B20122C7E0A3E0A6E0A1
:1006A000A9E0ACE0B0E0B5E0BAE0C1E0C4E0C7E08A
:1006B00000000020001002400074004004240140AB
:1006C00003000E00000001404C2401400C030020F8
:1006D0006E260008822600080C0100200C02002073
:1006E0003C260008012200940023032110460194B7
:1006F000FFF7EAFE0023CDE9004503221946B88E34
:1007000064E0032100940023012208460194FFF7CE
:10071000DBFE96F9010038B101287FF479AF222081
:1007200001F095F880B254E0222001F090F880B2F8
:100730000094019478E00094002301220321042016
:100740000194FFF7C1FE01230322CDE900450021FA
:10075000B7F844003AE00023CDE9004503221946EA
:10076000B88F33E0FA48CDE9004500880023042221
:100770005CE0BF207BB1012B0FD0022B11D0032BEB
:1007800012D0042BC9D100230095019504221946EB
:10079000B7F850001AE0087000E00A7048708870DE
:1007A00005E00A704A70FAE70A704A708A70C870E9
:1007B00025E70023CDE9004503221946F88E05E020
:1007C0000023CDE90045388F0322194680B21DE78A
:1007D00098B2002303221946CDE9004516E7CDE97A
:1007E000004508680EE0CDE9004508680FE0CDE956
:1007F0000045086811E0CDE90045086813E0CDE93F
:1008000000454868C0B20FE0CDE900454868C0F334
:10081000072009E0CDE900454868C0F3074003E040
:10082000CDE900454868000E002303220021EDE6D3
:10083000CDE900458868E5E7CDE900458868E6E749
:10084000CDE900458868E8E7F0B5C248016821F4C1
:1008500070010160016841F4000101604168BE4A15
:1008600001EA020141604168BC4A41EA020141607B
:10087000C16841F4A151C1604FF0000100BF00BF49
:1008800000BF00BF00BF00BF491CC9B26429F5D337
:1008900080686FF0A10141EA5011B14811F1010CDB
:1008A00004460166E67D227E656E647E4FF001039C
:1008B0004FF0000701D0A94216D0A94D87760A2E25
:1008C0006D6EEDB200D21AB1C67E0EB90377857592
:1008D000A24203D3037705F0F7028275C7761E2282
:1008E0004276C775077618E0761CF6B2C6750A2EF2
:1008F00013D3521CD2B2C7750276A2420DD305F0B3
:10090000F702827507760377C376827E2AB1620882
:100910004276022A01D8022242764166F0BD904812
:100920000023417D491CC9B24175072900D3437595
:10093000B0F93A208B491E2A01DD43750AE0407D5B
:10094000032807D332B11E2A04DCD1F80C0C40F482
:10095000007003E0D1F80C0C20F40070C1F80C0C0E
:10096000704710B57E4CB4F93A0008B1401E60875C
:10097000B4F93400B4F93A101E38814210D1B4F8F9
:1009800050004FF47A72401CA4F8500074480021C3
:10099000503001F00CF9B4F95010202000F00CFF99
:1009A000B4F93A00002808D0142806DC4007B0F15A
:1009B000C04002D1BDE81040F5E410BD2DE9F05F64
:1009C000674C0025207F002829D004F172002146C1
:1009D0000378897D4FF0040801260BB3074690F990
:1009E00001000246401C4FFA80FC242B25D03846DB
:1009F00004F1720704F177097F784FF4967E7F1E29
:100A00007FB2042B32D04FF47A7B052B62D04FF0AB
:100A1000640A062B7ED0092B7DD00B2B7CD069E19C
:100A2000D72902D07E2904D064E180F80080467086
:100A300060E12421017045705CE17E2902D0FE292D
:100A400003D009E03D707D7054E187F801C00C22AD
:100A50000021781C01F095F8A07D7F28DFD17978FE
:100A60000C22491E79700021781C13E0FE290AD05F
:100A70007F290BD0012A10D0032A13D0042A1ED0BC
:100A8000062A23D036E180F801C000E04770062234
:100A90000121401C01F075F82CE1D729BFD10521B7
:100AA000017027E1D729BAD10621017089F80050D9
:100AB00089F8015089F8025089F803501AE1D729C2
:100AC000ADD10B210170A4F832E013E1D729A6D1F2
:100AD00005700FE1224BA4F832B00A27B3F9343085
:100AE0004FF4167293FBF7F35B1C03EB83035B007D
:100AF0001BB2FE2917D0F6291FD0194F0A23B7F9C8
:100B0000347097FBF3F35B1E03EB83035B001BB2B4
:100B10007F2902E028E0AFE0B5E00ED077290CD0C5
:100B2000D72982D0E6E00E48A3861E21343001F09A
:100B300033F8B4F934102420C5E00948A3861E21F7
:100B4000343001F029F8B4F934102420CAE0000050
:100B5000F800002000100140FFF0F0FF000808003E
:100B60000000002000000140A4F832B0FE2906D0A9
:100B70007F2907D0DF290CD0D72914D0BAE080F81C
:100B800001C000E0477003220021401C00F0EEFF8E
:100B9000B0E019F8021002EB0900491C09F8021034
:100BA00009220021F2E799F9023099F9032003EBB9
:100BB000830302EB430799F9012099F9001002EB36
:100BC000C20303EB021207EB82024FF47A7301FBBC
:100BD000032109B20922FE4FA1F58063573B04D1DE
:100BE000027046701E20608619E0A1F50063AE3BDE
:100BF00002D10270457005E0A1F55063053B04D1B8
:100C000002704670A4F832A074E0A1F5A063823BA4
:100C100070D1027045704FF4FA706086E67300215F
:100C2000222000F0C9FD3888002100F0E5FD788819
:100C3000002100F0E1FDB888002100F0DDFDF8881A
:100C4000002100F0D9FD3889002100F0D5FD788918
:100C5000002100F0D1FDB889002100F0CDFDF88918
:100C6000002100F0C9FD388A002100F0C5FD788A16
:100C7000002100F0C1FD3DE0D7293BD180F8008084
:100C800003214170BEE7D34AA4F832E0FE29B2F94D
:100C9000422008D0F62908D07F2908D0772915D01E
:100CA000D72923D026E0521C02E0921C0FE0521EEE
:100CB000C848A4F84220C8226421423000F06CFFEA
:100CC000B4F942101E2000F077FD13E0921EC148D7
:100CD000A4F84220C8226421423000F05DFFB4F93C
:100CE00042101E2000F068FDA67603E080F8008028
:100CF00080F801802577BDE8F09FF0B4B548B0F8E2
:100D00004E10C83109B2A0F84E10B1F57A7F03DD5C
:100D10004FF61841A0F84E10037CAF4C0122002181
:100D20004BB3B0F94A50C4F80C54B0F84C40641CB2
:100D300024B2A0F84C40FF2C01DDA0F84C10A74DC8
:100D4000B0F94C4046F2C006052C35F8145006EBBD
:100D50000515A0F84A5006D01E2C06D0852C06D0CA
:100D60009E2C06D00BE0027509E0827407E0C27485
:100D700005E0427403E04FF40045C4F80C54C48D00
:100D8000641C24B2C485162C7EDBC46D641CC4654F
:100D9000C1858270048E641C24B20486142C01DB8D
:100DA00001860271848C641C24B284840A2C30DB9A
:100DB0008184C270C48C641C24B2C4840A2C01DBFC
:100DC000C1844271048D641C24B20485142C06DB9A
:100DD00001858271447A0CB1417200E04272448D07
:100DE000641C24B24485322C06DB4185C271847AAE
:100DF0000CB1817200E08272848D641C24B28485FF
:100E0000642C06DB81850272C47A0CB1C17200E0E9
:100E1000C272047B641CE4B20473062C00D3017319
:100E20006F4F3C686F4DA4B244EA05043C60BC6857
:100E300044F47044BC606C4CA7F6044725686B4EC4
:100E4000C5F3130545EA060525606568684E6FF32E
:100E5000130545EA06056560E56845F4FF55E5605C
:100E6000057B032D15D8D7F80C0C624931F9151004
:100E70000840C7F80C0CE06856494EF21F027C315E
:100E8000495D42EA411100E001E00840E060F0BC49
:100E90007047042D0BD0052DF9D190F8234044B1B3
:100EA00080F82310002BF2D1F0BC00F0ACBBF0BCFA
:100EB000CAE480F82320002BE9D1F0BC00F0E8BBA5
:100EC000FFF77EF94FF0E0214FF4886048614A480F
:100ED000FFF702FAFFF70CFAFFF713FA474E3D4C03
:100EE000474F4FF480780025E07C90B1E574B4F86A
:100EF0004600B4F84810884203D2401CA4F84600CB
:100F000002E0A4F846502574B4F84610012000F021
:100F1000FEF8207D90B12575B4F84600B4F848106D
:100F2000884203D2401CA4F8460002E0A4F84650D0
:100F30002574B4F84610012000F0E9F8607C30B167
:100F40006574264B42460021012000F018F9A07C70
:100F500030B1A5742B4B42460021012000F00FF95F
:100F6000307810B1357001F08EFAA07810B1A5700C
:100F7000FFF7DFF9E07820B1E570FFF71FFD00F023
:100F80006DF9607980B16571FFF7D5FAB4F9320077
:100F900040B1401E00B2608620B90E487230057024
:100FA0001E20A073FFF7BBFCA07910B1A571FFF75D
:100FB000CFF9207A002897D02572FFF7D2FCFFF7EF
:100FC00028FA11480570114805803D808CE7000023
:100FD0005A26000800000020007000400C0100208C
:100FE000040C01400000777700100140000030330E
:100FF0003333030050260008A0860100BA00002009
:10100000980000200C02002094000020B600002070
:1010100010B50021064C0A22B0FBF2F302FB1300CC
:101020006054491CC9B218460529F5D310BD00000B
:101030006D0000208448016821F4807101607047D0
:101040008148016841F48071016070477F490A89D5
:101050009207FCD588810889C007FCD08889C0B276
:1010600070477B48816941F21502114381617948DB
:10107000416821F0010141601021C0F81018D0F83A
:10108000001889B2C0F80018D0F80018724A11434D
:10109000C0F80018D0F8001C21F07041C0F8001C06
:1010A000D0F8001C41F04051C0F8001C674840F2E5
:1010B0004731018000218180704700B5FFF7D1FFE3
:1010C000FFF7B8FFD720FFF7C1FFFF20FFF7BEFFF4
:1010D0000246FFF7B5FF104600BD08B5FFF7C1FF98
:1010E000FFF7A8FFAF20FFF7B1FFFF20FFF7AEFF2C
:1010F0008DF80000FF20FFF7A9FFFF20FFF7A6FFF4
:10110000FF20FFF7A3FFFFF79BFF009808BD03B583
:101110000346FFF7A6FF012B13D05522FFF78AFFE6
:101120001046FFF793FF9DF80500FFF78FFF9DF82E
:101130000400FFF78BFFFF20FFF788FFBDE80C409E
:101140007EE75322EAE703B50346FFF78AFF012B48
:1011500013D08622FFF76EFF1046FFF777FF9DF84A
:101160000500FFF773FF9DF80400FFF76FFFFF20F6
:10117000FFF76CFFBDE80C4062E78322EAE73FB56A
:1011800004461546FFF76DFF012C16D05FF056049C
:10119000FFF750FF2046FFF759FFFF20FFF756FFEC
:1011A0009DF80500FFF752FF9DF80400FFF74EFF82
:1011B000FF20FFF74BFF002406E05424E8E7FF2060
:1011C000FFF744FF1855641CAC42F8D3BDE83F401C
:1011D00036E73FB504461546FFF743FF012C13D011
:1011E0005FF08704FFF726FF2046FFF72FFFFF2061
:1011F000FFF72CFF9DF80500FFF728FF9DF804007E
:10120000FFF724FF002405E08424EBE7185DFFF7D7
:101210001DFF641CAC42F9D3BDE83F4010E700B5A8
:10122000FFF71FFFFFF706FF3D20FFF70FFF2A2004
:10123000FFF70CFF8020FFF709FFA620FFF706FF4E
:101240005DF804EBFCE600000C0C014000300140AE
:1012500000100240000001400000B3B82DE9F05F2B
:10126000DFF8E883FB4CDFF8E8B398F800602378F8
:10127000DFF8E4A3F94F404600256EB184462046CE
:1012800042460169F64892F90120092EB0F90000A2
:1012900058D0422E7ED0A3E073B3A078401CA0703B
:1012A000222000F0D4FA81461420FFF71AF82420F7
:1012B00000F0CDFA06461420FFF713F80021084687
:1012C000226906E057F820309A4200D10121401CE3
:1012D000C0B24845F6DB79B1E248E34AB0F9001004
:1012E00012780A4315D0711AC91E1B2904D2058031
:1012F0005FF00500FFF757F86078002870D02220D3
:1013000000F0A5FA81461420FEF7EBFF00273E46C9
:101310000CE006800320EDE73AF9160000F0C1FA70
:101320002169814200D10127761CF6B24E45F3DBDC
:101330008FB3422188F8001088F801501E21ABF8C5
:1013400000104DE03ABB62782AB3002368B1002256
:1013500007E000BF57F822608E4200D10123521CE3
:10136000D2B2824201DA0A2AF4D3C04A127812B900
:1013700001228CF8012073B9092831DA3AF81000FB
:1013800000F03AFA0A20FEF7ACFF222000F05FFAE4
:10139000401C01E008E023E001B2222000F00CFA3A
:1013A0000A20FEF79EFF15E0D3B10026334606E083
:1013B00057F82380884500D101265B1CDBB28342AD
:1013C000F6DB6EB1042A09DA521C8CF80120642184
:1013D000ABF800100320FEF7E6FF01E08CF80050A8
:1013E00025706570BDE8F09FA148016821F4706127
:1013F00041F4E0610160816821F480618160A0F6C0
:1014000004404FF0000100BF491C09B21E29FADB5D
:10141000D0F80C1C41F48061C0F80C1C4FF00001A6
:1014200000BF491C09B21E29FADBD0F8080C4005A0
:1014300002D54FF0010101E04FF000014FF0000034
:1014400000BF401C00B26428FADBC8B2704700B588
:10145000002002464308FFF7C7FF10B143F08000A9
:1014600001E003F07F00521CD2B2082AF2D300BD83
:101470007F48016821F4706141F4E0610160816896
:1014800021F480618160A0F604404FF000014FF428
:101490008C7200BF491C09B29142FADBD0F80C1CD7
:1014A00041F48061C0F80C1C4FF0000000BF401CEC
:1014B00000B23228FADB70476D48016821F4706190
:1014C00041F4E0610160816821F480618160A0F6EF
:1014D00004404FF0000100BF491C09B23229FADB79
:1014E000D0F80C1C41F48061C0F80C1C4FF00000D7
:1014F0004FF48C7100BF401C00B28842FADB704789
:1015000010B504460023E00702D0FFF7D5FF01E045
:10151000FFF7AEFF5B1C6408DBB2082BF3D310BDF2
:1015200010B50F20FFF7ECFFFFF791FF494C19347E
:101530002070FFF78CFF6070FFF789FFA070FFF746
:1015400086FFE070FFF783FF2071FFF780FF607177
:10155000FFF77DFFA071FFF77AFFE07110BD3D4AF4
:101560001432107800F1010010704148016821F434
:10157000706141F4E0610160816821F48061816003
:10158000A0F604404FF000014FF4FA6300BF491C7D
:1015900009B29942FADBD0F80C1C41F48061C0F822
:1015A0000C1C4FF0000100BF491C09B23229FADBC4
:1015B0004FF0000100BF00BF00BFD0F8083C5B0542
:1015C00004D5491C09B23229F4DB1AE0517801F143
:1015D000010151704FF00001D0F8082C52050CD4D5
:1015E00000BF00BF4FF000004FF47A7100BF401CF5
:1015F00000B28842FADB01207047491C09B2C829B1
:10160000EADB0020704770B5FFF7A9FF0025114CF9
:101610000126D0B1FFF784FF04F11900D0F80100D2
:10162000A060411C0FD070B1E16888420BD1A18845
:10163000491C09B2A180502905DB20616670A58094
:10164000E178491CE170E06070BD13E07200002099
:1016500032000020940000205A260008D00000200C
:10166000860000203A000020010000200F0000202A
:10167000040C0140B4F9040038B1642805DAA0680C
:10168000411C02D008B120612670A560DCE7000093
:1016900070B5414C2078401CC0B22070142802D391
:1016A0000020207000E020B91E2000F0D0F83B4957
:1016B00008802078012804D1202000F0C8F838499B
:1016C00008802078022804D1222000F0C0F8354993
:1016D00008802078032804D1242000F0B8F832498B
:1016E00008802078042804D1262000F0B0F82F4983
:1016F000088020782E4E2F4D052804D1B6F9000021
:1017000000F0CFF828602078062804D1B6F902004E
:1017100000F0C7F868602078072804D1B6F9040003
:1017200000F0BFF8A8602078082804D1B6F90600B8
:1017300000F0B7F8E8602078092804D1B6F908006D
:1017400000F0AFF8286120780A2804D1B6F90A0021
:1017500000F0A7F8686120780B2804D1B6F90C00D6
:1017600000F09FF8A86120780C2804D1B6F90E008B
:1017700000F097F8E86120780D2804D1B6F9100040
:1017800000F08FF8286220780E2804D1B6F91200F4
:1017900000F087F8686270BDB800002042000020A9
:1017A000500000208600002034000020920000201D
:1017B0005A260008D000002070B505460C4600F0FF
:1017C000B3F8A02000F077F900F0E3F880B9E8B2B0
:1017D00000F071F900F0DDF850B9E0B200F06BF9FB
:1017E00000F0D7F8C4F3072000F065F900F0D1F855
:1017F000BDE8704000F09AB970B505460C4600F09F
:1018000093F8A02000F057F900F0C3F8D8B9E8B277
:1018100000F051F900F0BDF8A8B9E0B200F04BF9C2
:1018200000F0B7F8C4F3072000F045F900F0B1F874
:10183000C4F3074000F03FF900F0ABF8200E00F0D1
:101840003AF900F0A6F8BDE8704000F06FB970B545
:10185000064600F069F8A02000F02DF900F099F894
:10186000C8B9F0B200F027F900F093F898B900F089
:1018700072F8A12000F01FF900F08BF858B900F0C1
:10188000B0F80446012000F0E9F800F0AAF8054697
:10189000002000F0E3F800F049F904EB052000B265
:1018A00070BD2DE9F041044600F03EF8A02000F0A4
:1018B00002F900F06EF828BBE0B200F0FCF800F08E
:1018C00068F8F8B900F047F8A12000F0F4F800F04B
:1018D00060F8B8B900F085F80446012000F0BEF8C1
:1018E00000F07FF80546012000F0B8F800F079F824
:1018F0000646012000F0B2F800F073F80746002019
:1019000000F0ACF800F012F92902E0B201F47F41D6
:1019100032043B0602F47F0203F07F430844D118EF
:101920000844BDE8F081000010B58D4C206820F01F
:1019300002002060206840F0010020604FF00500A8
:10194000FEF7CAFC206820F001002060BDE81040CE
:101950000520FEF7C1BC10B5814C206820F00100C5
:101960002060206840F0020020604FF00500FEF784
:10197000B3FC206840F0010020600520FEF7ACFCBD
:10198000206820F002002060BDE810400520FEF72E
:10199000A3BC70B5734C606840F002006060606882
:1019A00020F0010060604FF00100FEF795FC6068D8
:1019B00040F0010060600120FEF78EFC2068A4F674
:1019C0000844800701D5012500E00025D4F80C0C5F
:1019D00020F00100C4F80C0C0120FEF77DFC68B279
:1019E00070BD70B5604C0026D4F80C0C40F00200BD
:1019F000C4F80C0C4FEA060504F60844606820F0B1
:101A000001006060606840F0020060604FF001001B
:101A1000FEF762FC606840F0010060600120FEF7A4
:101A20005BFC4FEA466021684FEA1060A4F6084468
:101A3000890702D540F0010601E000F0FE06012012
:101A4000FEF74AFCD4F80C0C20F00100C4F80C0C92
:101A50006D1CEDB2082DCFD3304670BD70B5424C31
:101A60000546D4F80C0C20F00100C4F80C0C03203F
:101A7000FEF732FCE807D4F80C0C02D020F002008C
:101A800001E040F00200C4F80C0C0120FEF724FC39
:101A900004F60C44206840F0010020604FF0010083
:101AA000FEF71AFC206820F001002060BDE87040BD
:101AB0000120FEF711BC70B52B4C0646D4F80C0C77
:101AC00020F00100C4F80C0C0120FEF705FC0825ED
:101AD0003006D4F80C0C02D540F0020001E020F0F2
:101AE0000200C4F80C0C0120FEF7F6FB7006060E8F
:101AF000D4F80C0C40F00100C4F80C0C0120FEF7E7
:101B0000EBFBD4F80C0C20F00100C4F80C0C012005
:101B1000FEF7E2FB6D1E6DB2012DD9DAD4F80C0C84
:101B200040F00200C4F80C0C002070BD10B50C4C45
:101B3000206820F002002060206840F00100206052
:101B40004FF00100FEF7C8FB206840F00200206063
:101B50000120FEF7C1FB206840F00200206010BDAC
:101B60000C0C0140080C01400000014090F90030CD
:101B70008B4200DA027090F90030934200DD017070
:101B8000704790F900308B4200DA017090F9001034
:101B9000914200DD02707047B0F900308B4200DAEC
:101BA0000180B0F90010914200DD02807047B0F969
:101BB00000308B4200DA0280B0F90030934200DD41
:101BC00001807047FB4910B5CA894FF400739A42EF
:101BD000FDD0F94C4A89A054521C92B200204A818F
:101BE0009A4200D348818A78002A05D08870F34849
:101BF000018841F08001018010BDFFB509ADD0CD55
:101C00008DF800108DF801208DF8023000258DF838
:101C100003408DF804608DF8057029466C4603E09A
:101C2000625C5540491CC9B28142F9D380EA050182
:101C30002218205451700A2100259170C61C04E01E
:101C4000605DFFF7BFFF6D1CEDB2B542F8D3FFBD7D
:101C5000F7B50E4615461620FFF7B4FF0A20FFF72A
:101C6000B1FF9DF8000080F01C04FFF7ABFF9DF86A
:101C700001004440FFF7A6FF9DF802004440FFF733
:101C8000A1FF9DF803004440FFF79CFF002704E0FC
:101C9000F05D4440FFF796FF7F1CAF42F8D3AD1DC7
:101CA000E8B24440FFF78EFF2046FFF78BFFBDE808
:101CB000FE400A2086E72DE9FF5FC14F38781628DD
:101CC0007DD197F801C0BCF1010F79D00024BCF19F
:101CD000020F76D0BCF1030F74D0BCF1040FFBD01F
:101CE00038464FF480728078BCF10A0F6BD0B54B48
:101CF000BCF10B0F68D03946BCF10C0FC9787ED00F
:101D0000BCF10D0F7CD0BCF10E0F7AD0DFF8B8A279
:101D1000AE4DAF4EDFF8BC92BCF1140F72D0BCF1E7
:101D2000150F70D0BCF11E0F6ED0BCF1280F46D03D
:101D3000BCF1330F69D0BCF1370F40D12620FFF73B
:101D400086FD28806878CDE9000402942B78332240
:101D500016210420FFF751FF6420FEF7C2FAAA20E3
:101D6000FFF775FD0390BE20FFF771FD00909DF811
:101D70000D009DF801209DF800108DE807009DF8EA
:101D80000C30372216210620FFF737FF6420FEF7BC
:101D9000A8FAAC20FFF75BFD0390C220FFF757FDC8
:101DA00000909DF80D009DF801209DF800108DE831
:101DB0000700372216219DF80C30062005E017E1B8
:101DC000E3E009E116E11FE15DE1FFF716FF6420A2
:101DD000FEF787FAAE20FFF73AFD0390C620FFF723
:101DE00036FD00909DF80D009DF801209DF8001033
:101DF0008DE8070037229DF80C30162106E055E1EA
:101E00009EE1A2E1A6E116E255E259E20620FFF7C3
:101E1000F4FE6420FEF765FAB020FFF718FD03908A
:101E2000CA20FFF714FD00909DF80D009DF80120D9
:101E30009DF800108DE807009DF80C303722162120
:101E40000620FFF7DAFE6420FEF74BFAB220FFF718
:101E5000FEFC0390CE20FFF7FAFC00909DF80D00E9
:101E60009DF801209DF800108DE807009DF80C30CA
:101E7000372216210620FFF7C0FE6420FEF731FA54
:101E8000B420FFF7E4FC0390D220FFF7E0FC0090C1
:101E90009DF80D009DF801209DF800108DE80700C9
:101EA0009DF80C30372216210620FFF7A6FE64208D
:101EB000FEF717FAB620FFF7CAFC0390D620FFF70B
:101EC000C6FC00909DF80D009DF801209DF80010C3
:101ED0008DE807009DF80C30372216210620FFF709
:101EE0008CFE6420FEF7FDF9B820FFF7B0FC0390EC
:101EF000DA20FFF7ACFC00909DF80D009DF8012062
:101F00009DF800108DE807009DF80C30372216214F
:101F10000620FFF772FE6420FEF7E3F9BA20FFF710
:101F200096FC0390DE20FFF792FC00909DF80D00D8
:101F30009DF801209DF800108DE807009DF80C30F9
:101F4000372216210620FFF758FE6420FEF7C9F954
:101F5000BC20FFF77CFC0390E220FFF778FC0090A8
:101F60009DF80D009DF801209DF800108DE80700F8
:101F70009DF80C30372216210620FFF73EFE642024
:101F800004B0BDE8F05FFEF7ACB90A49103108783B
:101F9000401C0870FFF7A1F803909DF80D009DF814
:101FA0000F209DF80E108DE807009DF80C300122DF
:101FB0003CE10000BA000020900900200C440040E1
:101FC0002C0700202C0300208C0000209200002011
:101FD000460000208E000020FFF76FF8C3B2009487
:101FE0000194022216210320CDF80840FFF705FED8
:101FF000BDE8FF9FFFF713F9032216210094019417
:102000002B4602200294F1E7012802D0022804D0D6
:1020100008E00021FC4B012002E0FB4B00210220E4
:10202000FFF7ADF84022F8490020FFF711FEF74C0A
:102030004FF0000000BF401CA042FBDBF2494022F1
:1020400040311046FFF704FE4FF0000000BF401C77
:10205000A042FBDBEC49402280318020FFF7F8FDF5
:102060004FF0000000BF401CA042FBDBE6494022CD
:10207000C031C020FFF7ECFD4FF0000000BF401C56
:10208000A042FBDBB4E700215C54491CFF29FBD9CB
:1020900053E00021DC4B012003E00228A8D1DA4BF9
:1020A000002104B0BDE8F05FFFF793B800255C5550
:1020B0006D1CFF2DFBD9012905D01025022915D053
:1020C000032926D039E01C70112159702221997002
:1020D0003321D970442119715521597166219971A3
:1020E0007721D97188211972992110E01C705D70D7
:1020F000202199703021D9704021197150215971D6
:10210000602199717021D9718021197290215972C1
:1021100011E09821197087215970762199706521F5
:10212000D97054211971432159713221997121219A
:10213000D9711D725C729C72DC720128ADD1A8E766
:1021400004B0BDE8F05FFEF7E2BF04B0BDE8F05FA9
:10215000FEF7F9BF2620FFF77AFB28806878CDE9E3
:10216000000402942B78332216210420FFF745FD4A
:10217000A749D7F80200D0460860C11700EB1160EC
:102180000012AAF80000B5F90000DFF888A2DFF815
:1021900088B200284DD010DD0AEB400030F8020C68
:1021A000FFF755FBB5F9001007460BEB410030F87F
:1021B000020CFFF74CFB3844308098480480B5F996
:1021C00000103AF811003188FFF7F6FA0A20FEF7FE
:1021D00088F8B5F900103BF81100B8F80010FFF7C7
:1021E000EBFA0A20FEF77DF8B5F900102620491C0D
:1021F000FFF7E2FA0A20FEF774F82620FFF727FB24
:1022000028806878CDE9000402942B7834221621C6
:102210000420FFF7F2FCA9F8004099F80110737848
:1022200032788DE80E0099F800301522162106202C
:10223000DCE63480C1E7794D0020298807EB000CEB
:1022400001EB00089CF802C0401C03F808C04028BD
:10225000F4D3403188B22880FF287FF613AF6A4B51
:1022600000210120FEF7B5FF31880120FEF76BFF4A
:1022700030884F46401C3080B9F80000401C80B2C6
:10228000A9F80000BAF8001088424FF00A000ED2F8
:10229000FEF727F87878727831788DE807003B7878
:1022A000152216210620FFF7A8FC2C80A0E6FEF7D9
:1022B00018F80A2064E604B0BDE8F05FFEF773B8D2
:1022C00000212620FFF778FA0A20FEF70AF82620D8
:1022D000FFF7BDFA28800A20FEF703F80021AA20A4
:1022E000FFF76AFA0A20FDF7FCFF0021BE20FFF786
:1022F00063FA0A20FDF7F5FF0021AC20FFF75CFA36
:102300000A20FDF7EEFF0021C220FFF755FA0A2050
:10231000FDF7E7FF0021AE20FFF74EFA0A20FDF798
:10232000E0FF0021C620FFF747FA0A20FDF7D9FF9A
:102330000021B020FFF740FA0A20FDF7D2FF00216C
:10234000CA20FFF739FA0A20FDF7CBFF0021B2209F
:10235000FFF732FA0A20FDF7C4FF0021CE20FFF775
:102360002BFA0A20FDF7BDFF0021B420FFF724FA65
:102370000A20FDF7B6FF0021D220FFF71DFA0A2040
:10238000FDF7AFFF0021B620FFF716FA0A20FDF790
:10239000A8FF0021D620FFF70FFA0A20FDF7A1FFC2
:1023A0000021B820FFF708FA0A20FDF79AFF002164
:1023B000DA20FFF701FA0A20FDF793FF0021BA2087
:1023C000FFF7FAF90A20FDF78CFF0021DE20FFF766
:1023D000F3F90A20FDF785FF0021BC20FFF7ECF997
:1023E0000A20FDF77EFF0021E220FFF7E5F90A2031
:1023F000FDF777FF6878CDE90004029433221621B7
:102400002B780420F2E500002C030020400D03008F
:10241000880000206E260008822600089000002018
:10242000084400B2B0F5007F02DBA0F5007000B2F6
:10243000002802DA00F5007000B2704770B55A4B00
:1024400006460022985D0A281BD1911E3046FFF7F0
:10245000E7FF1D5C002408E0511B891E3046FFF792
:10246000DFFF185C4440521CD2B2AA42F4D94FF0AC
:10247000FF313046FFF7D4FF185CA04201D10120A4
:1024800070BD002070BD2DE9F041484C00256078FA
:1024900028B1A580E58025816570BDE8F08120899F
:1024A0000028FAD0A0884FF0FF32114600B2FFF7A3
:1024B000B7FF3D4F385C0A28EFD1A0886FF00201CA
:1024C00000B2FFF7ADFF3E5C642EE6D2A088114655
:1024D00000B2FFF7A5FFFFF7B1FF0028DDD0F01C29
:1024E0004142A08800B2FFF79BFFE0800022A7F1E5
:1024F000640308E0E088114600B2FFF791FF385C02
:102500009854521CD2B2B242F4D3A088E080258104
:10251000BDE8F041FFF7CFBBF0B54FF04020B0F879
:102520000024224993064FF4007C4FF001074FF03E
:10253000000419D5B0F8003423F02003A0F80034CB
:10254000B0F80454184E8B88F5545B1C9BB20F7086
:102550008B80634500D18C800B895B1C9BB20B8107
:10256000634501D10C814F70120613D5B0F80024D9
:1025700022F08002A0F800248A894B899A420AD06E
:102580000B4B9B5CA0F80434521C90B288816045D0
:1025900000D38C81F0BD8F70B0F80C1421F0800155
:1025A000A0F80C14F0BD000090070020BA00002035
:1025B00090090020704770477047754600F028F872
:1025C000AE4605006946534620F00700854618B020
:1025D00020B5FDF7E7FDBDE820404FF000064FF0C5
:1025E00000074FF000084FF0000B21F00701AC4648
:1025F000ACE8C009ACE8C009ACE8C009ACE8C00967
:102600008D4670470446AFF300802046FDF7B7FDC6
:1026100000487047C40B002000487047C80B0020DA
:1026200001491820ABBEFEE726000200704710B536
:10263000FFF7F2FF4FF00001016010BDC0F9A4B038
:10264000999282F880908883C6A1868EFFFF000051
:10265000FFEFFFDFFFBFFF7FFFFF78007C00800000
:10266000840088008C009000940098009C00AA00D0
:10267000AC00AE00B000B200B400B600B800BA00C2
:10268000BC00BE00C200C600CA00CE00D200D60008
:10269000DA00DE00E2000000B8260008000000209A
:1026A000D00000002801000888270008D000002082
:1026B000580D000044010008000000000000000068
:1026C000000000000000000000000000000000000A
:1026D00000000000000000000000000000000000FA
:1026E00000000000000000000000000000000000EA
:1026F00000000000000000000000000000000000DA
:1027000000000000000000000000000000000000C9
:1027100000000000000000000000000000000000B9
:1027200000000000000000000000000000000000A9
:1027300000000000FFFFFFFF00000000000000009D
:102740000000000000000000000000000000000089
:102750000000000000000000000000000000000079
:102760000000000000000000000000000000000069
:102770000000000000000000000000000000000059
:08278000000000000000000051
:04000005080000ED02
:00000001FF
